:020000040800F2
:10000000E0070020210F0008E3310008F50E00088A
:10001000F50E0008F50E0008F50E000800000000BF
:10002000000000000000000000000000210C00089B
:10003000F50E000800000000CD0B00082D1D000883
:10004000D10C0008D10C0008D10C0008D10C00081C
:10005000D10C0008D10C0008D10C0008D10C00080C
:10006000D10C0008D10C0008D10C0008D10C0008FC
:10007000D10C0008D10C0008D10C0008D10C0008EC
:10008000D10C0008D10C0008D10C0008D10C0008DC
:10009000D10C0008D10C0008D10C0008D10C0008CC
:1000A000D10C0008D10C0008D10C0008D10C0008BC
:1000B000D10C0008D10C0008D10C0008D10C0008AC
:1000C000D10C0008D10C0008D10C0008D10C00089C
:1000D000D10C0008D10C0008D10C0008D10C00088C
:1000E000D10C0008D10C0008D10C0008D10C00087C
:1000F000D10C0008D10C0008D10C0008D10C00086C
:10010000D10C0008D10C0008D10C0008D10C00085B
:10011000D10C0008D10C0008D10C0008D10C00084B
:10012000D10C0008D10C0008D10C0008D10C00083B
:10013000D10C0008D10C0008D10C0008D10C00082B
:10014000D10C0008D10C0008D10C0008D10C00081B
:10015000D10C0008D10C0008D10C0008D10C00080B
:10016000D10C0008D10C0008D10C0008D10C0008FB
:10017000D10C0008D10C0008D10C0008D10C0008EB
:10018000D10C0008D10C0008D10C0008D10C0008DB
:10019000D10C0008D10C0008D10C0008D10C0008CB
:1001A000D10C0008D10C0008D10C0008D10C0008BB
:1001B000D10C0008D10C0008D10C0008D10C0008AB
:0401C000D10C000856
:1001C4007BB972B90029BEBF00204FF0004106E0A0
:1001D40008BF00281CBF6FF000414FF0FF3000F053
:1001E40057B8ADF1080C6DE904CE002909DB002BEA
:1001F4001ADB02F00DFEDDF804E0DDE9022304B0B1
:100204007047404261EB4101002B1BDB02F000FE12
:10021400DDF804E0DDE9022304B0404261EB410172
:10022400524263EB43037047524263EB430302F0D1
:10023400EFFDDDF804E0DDE9022304B0404261EBA8
:1002440041017047524263EB430302F0E1FDDDF8E4
:1002540004E0DDE9022304B0524263EB4303704738
:1002640053B94AB9002908BF00281CBF4FF0FF3119
:100274004FF0FF3000F00CB8ADF1080C6DE904CE7E
:1002840002F0C6FDDDF804E0DDE9022304B07047A6
:10029400704700BFF0B51C4885B002F020FF1B4832
:1002A40003F0BBFE88B1194C194F1A4E00214FF4CC
:1002B4007A7002F0C7FBA5681448EB6839219847A7
:1002C40048B1154802F00BFFF0E7144805B0BDE84B
:1002D400F04002F004BF0E212B696A46204698477D
:1002E40008B10F48EEE70D212B6902AA2046984772
:1002F4000028F6D10099384602F0F1FE0299304602
:1003040002F0EDFED2E700BF664A0008344400085C
:10031400CD4A0008EA4A0008984A0008824A0008C0
:10032400B34A00080B6801330B60014B1B68184784
:1003340028000020014B1860704700BF28000020EF
:1003440007B50B46002102460191034801A900F0BC
:1003540005F803B05DF804FB290300082DE9F04F0C
:1003640091B08B46029092461C4600259AF80000F4
:1003740008B9284638E325280AF1010707D0029B6B
:10038400594698470028C0F22F83013500E218220D
:1003940000210AA802F045FF9AF80130252B78D0F5
:1003A40000229646944616461046394617F8013BF5
:1003B4002B2B00F09D8000F29480202B00F09A807B
:1003C400232B00F09A802AB19DF8302042F040029D
:1003D4008DF83020BEF1000F05D09DF8302042F09A
:1003E40020028DF83020BCF1000F05D09DF830209C
:1003F40042F010028DF830202EB19DF8302042F0EA
:1004040008028DF8302028B19DF8302042F0040213
:100414008DF830209DF8302002F04400442803D1A8
:100424006FF386128DF830209DF830202A2B42F08D
:1004340080028DF830207BD19DF8312042F00102FA
:100444004B1C8DF831201A782E2A9DF831200CBFD0
:100454000121002161F341028DF8312074D15A78D1
:100464002A2A6AD0013300210A26184610F8012BE3
:10047400A2F13007092F40F293809DF830200E91AD
:10048400C2F3400040EAD17161F341028DF830209B
:100494005AE00AF102078DF833309DF83130D9075C
:1004A40040F1228154F8049BB9F1000F07DA9DF85A
:1004B400302042F004028DF83020C9F100095A07B7
:1004C40040F11B8154F8048BB8F1000F80F21A81BB
:1004D4009DF831306FF341038DF831304FF0FF3820
:1004E40010E12D2B0CD0302B7FF46DAF01225CE793
:1004F40001265AE74FF0010C57E74FF0010E54E77D
:10050400012052E70CFB0262303A0346184610F809
:10051400016BA6F13007092FF4D9994293D09DF8C5
:1005240030100D92D20F62F341018DF830108AE73A
:100534000B4600224FF00A0CE8E79DF8312042F008
:1005440004028DF8312002331F4617F8012B6C2A60
:1005540047D02BD8682A31D06A2A4CD04C2A52D0A2
:100564001F4617F8012B9DF831308DF83320782A77
:1005740000F2B2806D2A53D8692A00F2AD80572A5E
:100584006AD8412A03D0453A022A00F2A5809DF890
:100594003230042262F302038DF83230012382E008
:1005A40006FB0122A2F1300103465EE7742A26D03D
:1005B4007A2AD5D19DF8313006220DE05A78682A7E
:1005C4009DF8312006D1012161F3C6028DF8312056
:1005D4009F1CC6E71346022262F3C6038DF831302E
:1005E400BFE75A786C2A9DF8312001D10421EBE74A
:1005F40013460322F0E79DF831300522ECE79DF81D
:1006040031300722E8E7BDF8303023F4F04323F01B
:10061400020343F4804343F00203ADF83030A0E713
:10062400A2F16E00C0B20121814040F28240014239
:1006340022D111F0240F42D1CE074DD59DF832209E
:1006440003F07803A3F14000032161F30202434263
:100654008DF83220434126E0A2F15801C9B20120AD
:1006640000FA01F111F4624F91D111F4043F24D145
:1006740040F6010001422FD002219DF8320003F020
:100684007803402B61F3020008BF9DF830108DF809
:10069400320004BF41F001018DF83010632A21D1EA
:1006A400003B18BF01239DF83020C2F340010B43E7
:1006B40063F341028DF83020EFE60146DDE79DF853
:1006C4003220032113F0780F61F302028DF83220F7
:1006D40014BF01230023E6E79DF8303043F0010303
:1006E4008DF830300023DEE79DF93020002AB4BFB6
:1006F400DDF834904FF0FF39E1E69B077FF5EEAE6D
:10070400DDF838809DF831100023CDE90D339DF8D4
:10071400323003F00703012BC1F3C3013AD1CB1EDE
:10072400042B12D8DFE803F003090911110054F86F
:10073400043BDA17CDE90A321BE0E21D22F007027E
:100744001446526854F8083BF4E754F8043B012972
:100754004FEAE372CDE90A3204D103F0FF030A93AE
:10076400002305E0022904D11AB20A9243F3C033EC
:100774000B939DF8303013F0030641D002983B46AA
:100784005246594602F008FD0028C0F22D81054466
:10079400BA46EBE5022B21D1CB1E042B13D8DFE89C
:1007A40003F0030A0A1212002068231D0022CDE977
:1007B4000A021C46DDE7073424F007042346626876
:1007C40053F8080BF3E754F8043B00220129CDE960
:1007D4000A32C2D00229CCD19BB2C0E7042B09D182
:1007E400E31D23F0070303F10804D3E90023CDE953
:1007F4000A23BEE7032B04BF54F8043B0A93B8E76B
:100804009DF833007828C3D8622822D825283FF4DD
:10081400B6AD5828BCD10DF126030093DDE90A01D9
:1008240004AB0CAA02F072FC8246B8F1000F0DF181
:1008340026030CDB9DF83010A3EB0A026FF386113C
:1008440090458DF8301002D9A8EB02020D9298461B
:100854003EE0633815289BD801A252F820F000BF6F
:10086400E5080008490900089507000895070008ED
:10087400950700089507000849090008950700082E
:10088400950700089507000895070008A1090008C6
:100894006F09000873090008950700089507000808
:1008A400BD080008950700086F09000895070008AF
:1008B400950700086F090008B8F1000FDDF828A0BB
:1008C4000ADB4146504602F098FC0AEB0008002679
:1008D400BAF1000F0CD15BE7504602F087FCF4E755
:1008E4000A9B8DF8103000260DF1100A0DF1110845
:1008F400A8EB0A0306B101339DF83220D00667D570
:10090400023352060D9948BF0E9A0B4448BF9B18F8
:10091400B9F1000F75DD9DF83020A9EB0309C2F38E
:100924008003039353076CD4500660D546B1029BF1
:10093400594630469847002856DB039B01351E462E
:10094400302355E01E075CBFC3F300135E01DDE9ED
:100954000A2348BF2B26002BBFF65DAF524263EB40
:100964004303CDE90A232D2655E7002653E70A98C9
:1009740040B30DF1260300930CAA04AB002102F04E
:10098400C5FBBDF8323003F0EF0343F4F04343F00A
:1009940010038246ADF83230002646E70A9B072949
:1009A4003FF6F6AEDFE801F00C04060C08080C0C68
:1009B4001D70EDE61D80EBE6EA17C3E90052E7E699
:1009C4001D60E5E6DFF8C4A006460AF105088FE7D6
:1009D400110748BF013394E7184603935946029B15
:1009E40098470028039B04DA11B0BDE8F08F202358
:1009F4004D444A46002AA5EB090109F1FF39EBDC15
:100A04000D4636B1029B5946304698470028EBDB29
:100A140001359DF83230D90601D41A0706D5029B58
:100A24005946302098470028DEDB01359DF83230E6
:100A3400DB0607D59DF83300029B594698470028EA
:100A4400D2DB01350D9E2E44731B002B16DC02985D
:100A540043465246594602F09FFB0028C4DB054436
:100A6400A944A9EB0503002B7FF792AE029B5946DC
:100A7400202098470028B7DB0135F2E7029B59464E
:100A8400302098470028AFDB0135DDE70C4B000828
:100A94000C4B1A6842F400721A601A6842F48062BD
:100AA4001A604FF01002EFF3118382F31288BFF340
:100AB4006F8F83F31188BFF36F8F034B034A1A6060
:100AC40000207047003C0240500000200024F40045
:100AD400014910220A60704710ED00E072B64040F0
:100AE40080F31188BFF36F8FBFF34F8F30BF62B6AF
:100AF400BFF36F8F704700BF43B2002B07DB04497D
:100B04005B0900F01F000122824041F82320704756
:100B140000E100E043B2002BA8BF03F1604301F100
:100B24000101B8BF064B4FEA0111ACBF03F56143A5
:100B340000F00F00C9B2B4BF195483F80013704712
:100B440014ED00E030BFFFF7FDBF00BF0F4A08B54A
:100B54000F4B22F07F029A60BFF34F8FBFF36F8F6A
:100B6400D3F8882022F47002C3F88820EFF31483AA
:100B740023F0040383F31488BFF36F8F01F054FB55
:100B840001F0D0FF00F0BEF901F092FB0000000874
:100B940000ED00E0094A0A49936809689967094920
:100BA40058674B6843F080534B60002383F31188EC
:100BB400BFF36F8F9368986F704700BF9003002056
:100BC400184A000800ED00E012498A684FF030002E
:100BD4001044EFF3098C80E8F01F102080F3128892
:100BE400BFF36F8F0C4F4FF000668A698A603E60D6
:100BF400506F0023536780F3118804B5104600F04A
:100C0400C1F9BDE8044002F1300090E8F01F8CF314
:100C1400098870479003002004ED00E01EF0040FE3
:100C24000CBFEFF30880EFF30980816911F8021C0F
:100C34000229FFD001B502F0CAFA01BD42F8203CF6
:100C4400009B42F81C3C0A49019B42F8183C029B59
:100C540042F8143C21F001014FF0807342F8043C47
:100C640042F8081C0023203A02654367704700BF1E
:100C7400FD300008094A0346906870B113F1160F5D
:100C8400406E05D0A0F120029A4205D8834203D2D7
:100C9400814228BF00207047002070479003002045
:100CA40008B5094B98600D46144600F06BF92046D0
:100CB40085F30988002163B681F31188BFF36F8F30
:100CC4000022002302F018FA9003002001B5EFF38C
:100CD4000580A0F110004FEAC0000449014409C98D
:100CE4009847BDE801400249084700004C44000809
:100CF400F90C0008044B99689869884203D00349A9
:100D04004FF080520A6070479003002004ED00E029
:100D14000D4B9A6A9A6A9A6A920508D59A6B9A6AEE
:100D2400120404D518B19A6A22F400429A629A6AAB
:100D34009A6AD205044A58BF9B6A936A002043F416
:100D44007F4393620870704700ED00E0194B70B563
:100D540014469A6A9A6A9A6A920706461AD5586B92
:100D64009A6A150616D519B19A6A22F080029A6217
:100D74009A6A9A6A9A6A0F4D12F0100F0DD19B6A03
:100D84009A070AD40020AB6A43F0FF03AB62002346
:100D9400237070BD6FF01500EAE76B681B05F1D591
:100DA4003146FFF767FF0028ECD080F30988022062
:100DB400E9E700BF00ED00E070B5484B5B688AB01E
:100DC4000546C3F30803002686F31188BFF36F8F2B
:100DD40002F07F40B0F17F4F11D102F00C000828DF
:100DE4000DD010074CBF0D4601260022033B8DF8A1
:100DF4000720032B6BD8DFE803F00455595D354613
:100E0400F3E7364BDC6A14F0020460D1DA6A002A94
:100E140015DBDA6A520012D5AA6932F8021C4DF6C3
:100E2400027291420AD093F828200AB30DF1070206
:100E340001212846FFF78AFF044600E02C689DF84C
:100E440007309BB92022294602A802F0DFF9099B4A
:100E5400002E3ED0C3F3080222B96FEA53236FEA8F
:100E64004323099302A9204602F0AFF90AB070BDEA
:100E740093F829202AB10DF107010120FFF748FF5B
:100E8400DAE75A8D92B2002AD9D09A6A9A6A9A6A93
:100E94009A6A9A6A9A6A9A6A6FEA02426FEA1242F4
:100EA4009A62CCE70DF107020021C2E70DF10701B8
:100EB4000020E3E7094B9A6A9A6A9A6A9A6A9A6ADC
:100EC4009A6A9A6A6FEA02426FEA12429A620024AC
:100ED400B5E723F4FF7323F00103C2E700ED00E05C
:100EE400024A536943F010035361704700ED00E078
:100EF400EFF30880EFF3098101B57246FFF75CFF59
:100F040001BD00BF044800231021C2180133612B26
:100F140082F80013F9D1704700E100E0102080F35B
:100F2400118808484FF40261401880F30988EFF3F0
:100F340014800221084380F31488BFF36F8FFFF7F6
:100F440005FE000060090020064B9B68834207D120
:100F5400EFF3058323B1044A536843F0805353608D
:100F640001F08EBD9003002000ED00E0024B034A27
:100F74000348012100F06EB80000022000000020A8
:100F8400E0470008426E054B203A1A60044A2021CB
:100F9400C3E901121846012100F066B8A00100203F
:100FA40000000B15F0B51F4E00258D4201DB1046E5
:100FB400F0BD44689CB353B104F1FF3C14EA0C0F38
:100FC40018D11F2C16D907681CEA070F12D1202C40
:100FD4000768D0F808C0D2B20FD9B4F1004F0ED8C8
:100FE400013CB4FA84F4C4F11F046400072A4CEAF7
:100FF400040C06D96FF01502D9E70824F6E73E245D
:10100400F4E727F01F04144344F01004C6F89820B2
:10101400C6F89C404CF00104C6F8A04001320135EA
:101024000C30C2E700ED00E0044B0522C3F8942025
:10103400BFF34F8FBFF36F8F704700BF00ED00E029
:10104400BFF35F8F024B0022C3F89420704700BFA8
:1010540000ED00E010B5034C01232278FFF7A2FF56
:10106400207010BDC403002008B5094A002312787B
:10107400FFF798FF10F1160F02D0064A072800DD8B
:1010840008BDC2F89800C2F8A0300130F6E700BFEE
:10109400C403002000ED00E014490868082810B5D6
:1010A40021D8FFF7CDFF124C49680022904201F18C
:1010B4000C0105D10F4B1870FFF7B6FF002010BDCF
:1010C400C4F8982051F80C3C23F01F03134343F059
:1010D4001003C4F89C3051F8043C43F00103C4F8F5
:1010E400A0300132E2E74FF0FF30E8E7EC470008B8
:1010F40000ED00E0C4030020014B1860704700BFFE
:101104002C0000202DE9F8430D4F04460E461546E9
:101114004FF0010802F10409B44201DBBDE8F88391
:101124007A6908FA04F333EA020207D17B6155F8BD
:1011340034301BB159F83410204698470134EBE79A
:10114400003C0140044A0123116883400B431360AF
:10115400024B1856FFF7D0BC003C01403F4B00083F
:101164001F2806DC034901220B68824023EA02039C
:101174000B607047003C014003292AD8DFE801F0E6
:10118400020E141F134B01229968824021EA0201C6
:101194009960D96821EA0202DA6070470D4B012296
:1011A400996882401143F3E70A4B0122D9688240CF
:1011B4001143D960996821EA02029A6070470123B9
:1011C40003FA00F0034B9A6802439A60DA6810430A
:1011D400D8607047003C0140074B10B5044653F8F3
:1011E400300028B943F8341003EBC4035A6010BD2F
:1011F4006FF00F00FBE700BFAC010020034B00229F
:1012040043F8302003EBC0035A607047AC01002060
:101214000B6886B0062B39D8DFE803F00410242EBF
:1012240038381A001B4A4B68116B19431163126B4F
:1012340013400193019B002006B07047154A4B6888
:10124400516B19435163526B13400293029BF2E7B3
:10125400104A4B68916B19439163926B134003934B
:10126400039BE8E70B4A4B68116C19431164126C39
:1012740013400493049BDEE7064A4B68516C194300
:101284005164526C13400593059BD4E76FF08500BD
:10129400D2E700BF003802400B68062B29D8DFE8EC
:1012A40003F0040C1A2128281300134A4968136B0D
:1012B40023EA01031363002070470F4A4968536B04
:1012C40023EA01035363F6E70B4A4968936B23EA65
:1012D40001039363EFE7084A4968136C23EA0103A7
:1012E4001364E8E7044A4968536C23EA010353642E
:1012F400E1E76FF08500704700380240084B096849
:101304001B68062909D8DFE801F00505040508086B
:1013140005005B081360002070476FF0850070477C
:101324005000002030B587B000234FF48052CDE93F
:101334000032029300F034F803A801F0EFFF174BDA
:101344001A68910706D41A6842F001021A601A68F2
:101354009207FCD5114CA36823F00303A360A36890
:1013640023F0F003A360A56815F00C05FBD12368F6
:1013740023F080732360636823F0706343F0006399
:101384006360694603A800F0E5FE236823F4803314
:10139400236001F0CBFF284607B030BD003802407F
:1013A400064B1A6C42F080521A641B6C82B003F034
:1013B40080530193019B02B0704700BF0038024084
:1013C40008B5084B0848186002F027FE38B10748F2
:1013D400FFF792FE0548FEF7ADFF002008BD6FF051
:1013E4001200FBE764020020EC430008F513000838
:1013F4000A2838B5074D044604D1286883680D21AE
:101404005B68984728688368E1B25B689847204620
:1014140038BD00BF6402002070B50546074C204665
:1014240002F0FBFD30B1A368294620461B68BDE8E5
:10143400704018476FF0120070BD00BFFC420008F6
:10144400F7B51646B6F5001F476802690C461D46F7
:1014540023D101F00302043292000F23934043EAA4
:101464009103DAB23349023251F82220190C02EA0C
:10147400134391FAA1F2B2FA82F2D340BA689A42C3
:1014840009D12046FFF76CFE2046FFF7B7FE002186
:101494002046FFF771FE00263EE0B6F5800F42D0ED
:1014A40025492046FFF798FE064600283ED1234AE8
:1014B400BF6892E803006B4683E803001846FFF711
:1014C400ABFFC0B904F0030304339B000F229A401E
:1014D40042EA9402D3B29B0003F1804303F59C33A8
:1014E400110C986820EA124091FAA1F2B2FA82F241
:1014F400974007439F60B5F1806F10D0B5F1C06F7E
:101504000FD005F17E435942594149002046FFF767
:1015140033FE2046FFF716FE304603B0F0BD01212E
:10152400F4E70321F2E76FF08506F5E76FF00F06A5
:10153400F2E700BF003801405B350008D8470008D7
:1015440002694368126ADB68C2F34202012A10B5D9
:1015540004D0022A21D06FF0150010BD58681F4A2C
:10156400B1FBF2F220F03F0010435860186A0132D8
:1015740020F03F0002431A62194AB1FBF2F140F62F
:10158400FC72114208BF0421DA6922F44F4222F0AE
:10159400FF020A43DA610020DFE758680F4AB1FB13
:1015A400F2F220F03F0010435860186A4FF496742A
:1015B400624320F03F004FF47A74B2FBF4F201323C
:1015C40002431A62074A914289BF013248F201017B
:1015D400B1FBF2F141F40041D6E700BF40420F00F5
:1015E400400D03007F4F12002DE9F7434768D0F800
:1015F4001090FE68002205460C4601920437DFF87D
:101604006480404602F009FD28B96FF004052846BD
:1016140003B0BDE8F083D8F80830DB68002BF4D0C1
:1016240001AA3946404698470028EEDBC9F8204015
:1016340009F110094FF0FF324FF0FF33484600F034
:101644003DFF3368019923F001033360336823F0CD
:101654001A0333602846FFF773FF0546484600F037
:101664000DFFD4E7FC420008F7B545680669044657
:101674004FF0FF320021304602F010FD2B68204667
:101684009847686901AA002102F0AEFC002815DB26
:10169400019B00221979186800F012FC00280DDB68
:1016A4000122114606F1100002F0F8FC2F1D1B4E1A
:1016B400304602F0B2FC18B96FF0040003B0F0BD7C
:1016C400B36839461B68304698470028F4D1296925
:1016D400134B99421CD00FD8124B99421AD0124B7B
:1016E400CB1A59425941890041F010012046FFF7B5
:1016F4007BFF00EAE070E1E70C4B99420CD003F564
:10170400C31303F5206399420CBF0A210021EBE7C0
:101714000621E9E70221E7E70821E5E7FC420008A2
:1017240040420F00A0860100801A060040E1330009
:101734002DE9F04F0D2985B0924605D80B2900F20A
:101744002D816FF0850026E10E29FAD1D0F81080A2
:10175400D8E90832134302D1404602F056FAD8E9D8
:10176400085B05FB0BF3A5FB054707EB4307A6093D
:1017740046EA8766BA1106FB0BF305FB0233A6FBA8
:1017840005629B18D8F8189002D5FF3643F1000380
:10179400360A46EA03661B120293029A98F90D3040
:1017A400D9175A4306FB0122A3FB0631521802D56E
:1017B4001F3342F10002B8F9081098F90C00A1F5A2
:1017C40080415B09890343EAC26301EB62114FEA7A
:1017D400E07C00FB07F204FB0C22A0FB04C00244E3
:1017E4009200B8F90A0042EA9C724FEA8C0C13EB9F
:1017F4000C03A0F5804041EB02014FEAE07C00FBC2
:101804000BF205FB0C22A0FB05C0024452054FEA73
:101814004C501B1842EADC2241EB0202002A04DA93
:101824006FF07F415B1842F100021B0E98F916001D
:1018340043EA022301931316039300FB0BF1C3172E
:1018440005FB0311A0FB05031944B8F914301A046D
:10185400801841EBE371A0FB090C4FF4A032002384
:1018640009FB01C1FEF7ACFCA0FB093209FB012115
:10187400002904DA40F2FF129B1841F1000198F9A3
:10188400132002984FEAE27C504306FB0C00A2FBB3
:1018940006265B0A801943EAC1534FEA612102D547
:1018A4001F3240F10000B8F80E605209F60342EA14
:1018B400C06206EB601698F912004FEAE07C4743D9
:1018C40004FB0C77A0FB044007443F0147EA14776C
:1018D40024011219B8F81040A4FB050504FB0B55AC
:1018E4004FEA855545EA90254FEA805046EB0707B5
:1018F400121847EB0505002D02DA033245F1000505
:101904000198039E9208A0FB090442EA857212180A
:1019140009FB064444EBA5000A25A3FB053405FB9B
:10192400014198F91740D31841EB0001A9FB09259F
:10193400E017504304FB0500A2FB0424001904D55E
:101944004FF6FF74121940F10000120C42EA0042F3
:10195400A2FB0924001409FB0040002802DA7F32AC
:1019640040F10000D20942EA4062D2184FF0190354
:1019740041EBE011A2FB032003FB0100174A002303
:10198400000A0021FEF76CFC0A23CAF800005A433F
:10199400CAF80420002005B0BDE8F08F0069D0E942
:1019A4000832134301D102F030F9426A0C4B006A49
:1019B400A0FB030103FB0211002904DA43F6FF73C1
:1019C400C01841F10001800B40EA8140054A002320
:1019D4008913FEF7F5FBCAF80000D9E7A0860100D9
:1019E40090D0030040420F00F8B50C4622B1062AFD
:1019F40027D06FF0150017E01C885B684FF47A71EC
:101A040093FBF1F39BB254EA0301F2D021490D8810
:101A1400AC420AD2C2F11002D4B223461F221D21C5
:101A2400056902F0A5F950B1F8BD02D14D889D4277
:101A3400F0D20132112A01F10401E8D1D9E72C7066
:101A4400F2E71A68056997B27B1E1F2BD1D83B4079
:101A5400CFD10E291AD0A1F10C03012BC9D83822F9
:101A6400032314E07F0817F0010FCEB201F1010146
:101A7400F8D006FA03F3DBB21C2102F079F900284E
:101A8400D2DB0E2C0CBF6E70AE70CDE707220021A6
:101A9400E9E700BF1C4A00082DE9F34144680669E0
:101AA400334F7760054604F10408384602F0B5FA6E
:101AB40020B96FF0040002B0BDE8F081BB6838467D
:101AC4001B684146984707460028F2D1014601AAFF
:101AD400A06902F089FA0028EDDB019B3A461979E6
:101AE400186800F0EDF90028E5DB2368DA6822F4D1
:101AF4000052DA6003F10C0252E8002F42F00C02AB
:101B040003F10C0040E800210029F3D12269022AE4
:101B140029D0012A0ABF4FF4805000204FF4C0613D
:101B2400DA68084322F4B0520243DA601A6922F4F4
:101B340040521A61237B2BB16B681A68536943F4D2
:101B4400407353613168284602F0DFF9227D23682F
:101B54001AB15A6942F008025A61DA6842F4005232
:101B6400DA600020A7E74FF480504FF48061D7E794
:101B7400FC4200082DE9F0470B7945680669012B02
:101B84000C4600F08C809A1ED2F1000C4CEB020C37
:101B94004FEA8C2C94F80590B9F1020F9CBF444A8B
:101BA40032F819E0A27988BF4FF4005E042A79D094
:101BB400191E18BF0121090394F80780A3F1030A31
:101BC400B8F1010F14BF00274FF44077BAF1010FA9
:101BD4006BD90BB1042A68D019F0FD0F65D0022A25
:101BE40063D9042A61D02B68B8F1000F19D0314AA7
:101BF400934213D0A2F54C4293420FD002F5806277
:101C040093420BD002F58062934207D002F58062C2
:101C1400934203D002F54442934246D1B8F1010FF6
:101C240043D1DA6822F40052DA60DA6802F4C0625E
:101C340094451FBFDA6822F4C06242EA0C02DA60FB
:101C44001A6902F4405296451FBF1A6922F44052A1
:101C540042EA0E021A61DA6802F4805291421FBF0E
:101C6400DA6822F480520A43DA605A69216802F47D
:101C7400407297421FBF5A6922F440723A435A6134
:101C84003368994203D002F040F9236833602A682C
:101C9400D36843F40053D3600020BDE8F0874FF4C9
:101CA400C06C77E74FF4805186E76FF08500F4E766
:101CB400604A0008001001404FF0E02310B59A6913
:101CC40019699869094B11F4803F094901D182428D
:101CD40006D21A680C6822441A604FF0E022126996
:101CE4001B680A681344181A10BD00BF8C03002037
:101CF40088030020094B102283F82320084B42F26A
:101D04007F521A60074B002018604FF0E0235A619D
:101D140098611A6942F007021A61704700ED00E009
:101D2400880300208C03002008B5FFF7C5FF0C4B87
:101D34000C4A186811680844106000221A600A4AA4
:101D440013684FF41651C01AB0FBF1F001FB0033D5
:101D5400136000F0C5FFBDE80840FEF7CBBF00BF2D
:101D64008C03002084030020800300202DE9F0412F
:101D7400344E61B1421C0AD14FF0E022136923F0C2
:101D8400010313614FF07F433360BDE8F081431CCE
:101D940035684DD001284EDD40F2D268404501DC63
:101DA40000F1FF384FF01003EFF3118483F312882E
:101DB400BFF36F8FFFF780FF234F4FF0E023002125
:101DC400D3F818C03B68C218204B1960204B1B681D
:101DD400D11A33D44FF4165000FB081101F51551F4
:101DE4009B1A3F31B1FBF0F100FB0133B3F5806F77
:101DF40024D918498B4228BF0B464FF0E0203360AA
:101E040081698C4538BF654403F1FF3334BF6D1AD3
:101E1400ACEB010C436138BF52194FF0000328BFEB
:101E2400624483613A6084F31188BFF36F8FACE737
:101E340040F2D260B4E74FF00008B3E74FF4806398
:101E4400DBE700BF88030020840300208C0300200C
:101E54008003002000C3FF0010B54FF01003EFF320
:101E6400118483F31288BFF36F8FFFF725FF074BAD
:101E7400074A1B6812689B1A034484F31188BFF352
:101E84006F8F4FF41650B3FBF0F010BD84030020A5
:101E94008003002010B54FF01003EFF3118483F397
:101EA4001288BFF36F8FFFF707FF044B1B681844BA
:101EB40084F31188BFF36F8F10BD00BF840300202B
:101EC4002DE9F0471C4F044600EBC1060025B4423F
:101ED40001D1002014E02068C30600F01F0911D4CA
:101EE400656845F02005C0F3471AC0F343200A286B
:101EF4001ED857F82080B8F1000F08D16FF01200F7
:101F0400BDE8F087B9F1100F08BF3025EBE7404674
:101F140002F083F80028F1D04B462A460AF00F015C
:101F2400404601F02BFB002804F10804CFDAE7E770
:101F34006FF01500E4E700BFD849000830B50A4C3B
:101F440041EA82116568094A2A40114301436160EC
:101F5400626822F440321A436260626822F0E0420E
:101F64001343636030BD00BF003802400080BFFFF0
:101F7400084A1368116803F0007301F000510B4321
:101F8400136814BF0120002013F0006F18BF012054
:101F9400704700BF0038024000284ED0424B1B68F7
:101FA40003F44043B3F5404F12D103F10F6303F53B
:101FB4008C5398423D4A46D83D4B984201D904235C
:101FC40042E090423DD83B4B984203D8002340E086
:101FD400002344E0022342E0374A904209D9334ABD
:101FE400002B08BF0423904249D8324A904246D974
:101FF40003E0304A904242D91BB1012B38BF012380
:1020040040E002233EE02B4A904203D9002B46D104
:10201400022302E0294A904241D829490A6822F061
:102024000F021A430A600A6802F00F02934206D0B4
:102034000A6802F00F02934201D001207047002089
:102044007047032305E00523904202D8194A9042C1
:1020540002D81A4A904202D9012B38BF0123124AEE
:10206400126802F44042B2F5004F0BD102F10F6244
:1020740002F5A3429042AFD9002B08BF05230F4AB3
:102084009042BAD8084A126802F44042B2F5804F2E
:10209400C3D1064A9042B6D9002B08BF0323012BB3
:1020A40038BF0123B9E700BF00700040804A5D05D6
:1020B400000E270700879303001BB70080C3C901E4
:1020C400003C0240F8B50F681F4A204EC7F30313C3
:1020D4000D46D35C20FA03F43368A34226D31C4B89
:1020E4001A6842F080721A601A689201FCD59A68E4
:1020F40022F0F0023A439A609A6822F0030242F016
:1021040002029A60124B9A6802F00C02082AFAD171
:102114009A68696822F4E0520A439A609A68A96846
:1021240022F460420A439A60002004E02046FFF74C
:1021340033FF0028D3D03368A34202D92046FFF7E7
:102144002BFF00B93460F8BDB14B000850000020EB
:102154000038024070B505460E46FFF709FF18BB6C
:102164002968124B01F03F02B3FBF2F36A68C2F331
:1021740008045C43AB68180C01304000B4FBF0F475
:102184000B480568AD0706D4056845F001050560F0
:102194000568AD07FCD50020FFF7D0FE3146204688
:1021A400BDE87040FFF78EBF012070BD0024F4002D
:1021B400003802400E4B70B553F82040013053F8FC
:1021C4002060A64200D870BDD4E90035284698475F
:1021D40065B1EB6830B10028B8BF4042FF28A8BF02
:1021E400FF2018705A7842F001025A700834E8E768
:1021F400044A000808B50A4B012202201A70FFF7AE
:10220400D9FF00F0F9FD0320FFF7D4FF00F0EAF84E
:10221400FEF740F8034A137B23F00103137308BD50
:10222400C50300201801002008B50348034A002113
:10223400121A01F023FF08BD98000020C8030020F3
:1022440070B5002386B00122CDE90423134E144D4A
:1022540001930F22CDE902321249182303FB0055E2
:1022640006EBC01604464FF4B07000FB04110E4B8D
:1022740000954FF4A072304600F082F8737BEE6054
:1022840023F004037373094B2C754FF4026202FBB1
:10229400043313446B6006B070BD00BF9800002087
:1022A40090030020000800208940000860090020F5
:1022B40080B52C4BA6B083F308882B4D2B4E6B694D
:1022C4002B4F43F4007300246B61F02385F8223014
:1022D400EC772C766C76AC7685F820406B6A43F408
:1022E400E0236B62FEF7FCFDFEF7F2FB4FF0FF33D9
:1022F400AB62EB62FEF7D0FEFEF738FE40F201134C
:10230400ADF8243006ABB360CDE91F44229401F04C
:1023140083FE2046FFF74EFF0120164DFFF74AFFCC
:1023240000F002FB144BB56105930123134900949B
:10233400CDE903434FF480623B46CDE9014428468E
:1023440000F01EF86A7B064622F0040228466A73EF
:1023540001F0DEFE2046FFF773FF3A463146284679
:10236400FEF79EFC8011002000ED00E090030020A9
:10237400F921000818010020C14B0008E0030020E7
:102384002DE9FF410E9E0673042646730D9E867347
:1023940000F158050F46D61DC0E916550C9A0025C4
:1023A40026F007062037C0E90655C0E9197685608E
:1023B400C573C56606F1200802920B9A01928844FF
:1023C4000A9A009242460446FEF738FC044B6565BF
:1023D4009B6803B11B6F2367404604B0BDE8F081DE
:1023E40090030020F0B5224C224D87B02646AE4221
:1023F40004F130040BD300F0F5F81D4C1E4F0A26EF
:10240400AC4220D307B0BDE8F04000F071BA54F8F4
:10241400043C059354F8103C049354F8143C03937F
:1024240054F8183C029354F81C3C019354F8203C93
:10243400009354E90C0154E90A23FFF7A1FF54F86F
:10244400303C5E65D2E7626A531C09D022EAE2722C
:1024540082FB062352EA0301206803D100F0A6F9A7
:102464003034CDE73946183000F0C0FBF8E700BF40
:1024740094000020940000203541000838B504463B
:102484004FF01003EFF3118583F31288BFF36F8FBE
:1024940001F099FE48B10022826701F039FE294615
:1024A4000548BDE8384000F08BB8D4E902329A42BE
:1024B40018BF0133A360F2E7C603002013B54FF041
:1024C4001004EFF3118184F31288BFF36F8F8468D3
:1024D40044B1013C846081F31188BFF36F8F002005
:1024E40002B010BD52EA030406D181F31188BFF390
:1024F4006F8F6FF00F00F3E7CDE900230246024827
:1025040000F0B0F9ECE700BFC603002070B5044644
:102514004FF01003EFF3118583F31288BFF36F8F2D
:102524006FF00A06204601F04EFE18B1866701F0EE
:10253400EFFDF7E7A06029460248BDE8704000F0CF
:102544003FB800BFC603002038B5074D2C6854B10E
:10255400FFF782FC054B04441C6128680021BDE898
:10256400384001F05EBE38BDBC030020900300205B
:1025740010B54FF01003EFF3118483F31288BFF307
:102584006F8F0C4A0023136100284FF00A0300FBED
:1025940003F309480ADC0360084B90681960FFF7ED
:1025A400D3FF84F31188BFF36F8F10BD022BB8BF24
:1025B4000223F0E790030020BC030020B8030020AE
:1025C40049B9EFF3058030B9054B9A699B689A4283
:1025D40001D0FEF7DFBA81F31188BFF36F8F704724
:1025E400900300204FF01003EFF3118183F312885E
:1025F400BFF36F8F044B9A68D37B013BD37381F392
:102604001188BFF36F8F70479003002038B50246DE
:102614000C480D4D01F076FD044600B9EC68AB683A
:102624003AB95A7BD20604D1A26912B9DA897F2A4F
:1026340005D89C4202D02046FFF786FF2346AB61B3
:1026440038BD00BFAC0300209003002070B590F9A2
:102654000D20437B002A014604DA03F07F03437311
:1026640001F028FD4B7B154A63F07F034B73D2E9DD
:10267400073002F11C04A3421AD0CBB191F90E50D9
:1026840093F90E60B5420ED0AE420CDD5868C1E934
:102694000030016059609068431A5842BDE87040A8
:1026A4005841FFF7B3BF984202D01B68002BE7D113
:1026B400C1E9004001601162EDE700BF9003002012
:1026C40038B54FF01003EFF3118583F31288BFF38D
:1026D4006F8F174B174A9C6811688C4207D12046AC
:1026E400FFF732FF85F31188BFF36F8F38BD0021E8
:1026F4001160114A1268C2B1E2897F2A15D8627B3F
:10270400D20612D10D4A94F90E10126891420CDBD4
:102714000B4A944209D01A69824203DC2046FFF72F
:1027240095FFDCE7121A1A61DCE70022FBE700BF21
:1027340090030020B4030020BC030020B803002051
:102744009800002070B490F90D20437B002A29DB07
:10275400DA0627D182692ABB134A63F07F034373E5
:10276400D2E9073102F11C04A34216D0ABB190F9AF
:102774000E5093F90E60B5420AD0AE4208DD5A6895
:10278400C0E900321060586070BC0020FFF73EBF03
:102794008B4202D01B68002BEBD1C0E900410860DA
:1027A4001062F1E770BC70479003002010B54FF041
:1027B4001002EFF3118482F31288BFF36F8F427B10
:1027C400510704D484F31188BFF36F8F10BD22F036
:1027D40004024273FFF7B6FF21460248BDE81040E9
:1027E400FFF7EEBEC603002008B590F90D20437B29
:1027F400002A014604DA03F07F03437301F05AFC14
:10280400044B9868431A58425841BDE80840FFF702
:10281400FDBE00BF900300202DE9F0410646154699
:102824001C464FF01003EFF3118783F31288BFF3B4
:102834006F8F01F09FFC87F31188BFF36F8FB4F1A2
:10284400FF3F08BFB5F1FF3F08D02A46234606F1F3
:1028540018000349BDE8F04100F0C8B9BDE8F081B3
:102864003541000810B5074B9868074B0C461860B3
:102874001146DDE90223FFF7CFFF2046BDE81040F3
:10288400FEF788B990030020B403002070B5044615
:10289400183001F0B0FC4FF01003EFF3118683F30E
:1028A4001288BFF36F8F94F90D20637B002A05DA39
:1028B40003F07F036373204601F0FCFB0B4D637B45
:1028C400A86843F010036373031B58425841FFF791
:1028D4009DFE86F31188BFF36F8FAB68A34203D1CB
:1028E400BDE8704001F004BC70BD00BF900300203F
:1028F40010B54FF01003EFF3118483F31288BFF384
:102904006F8F084B9A68D37B0133D3730020FFF792
:102914007DFE84F31188BFF36F8FBDE8104001F092
:10292400E7BB00BF90030020044B002103F11C020D
:10293400C3E907220846FFF71BBE00BF900300202F
:10294400F8B54FF01003EFF3118483F31288BFF34B
:102954006F8F19498868437B03F07F03437301F049
:10296400A9FB437B0A4663F07F03437352F81C3F81
:1029740093421BD0D3B10F6A90F90E5093F90E60B5
:10298400B5420ED0AE420CDD5A68C0E90032106088
:1029940058600120FFF73AFE2046BDE8F840FEF7F4
:1029A400F9B8BB4202D01B68002BE7D10B6AC0E91F
:1029B400002318600862ECE79003002050EA01034A
:1029C4002DE9F04105460E4603D1FFF7B9FF00207B
:1029D4002CE0831C71F1FF332ADB01F03CFC441929
:1029E4004FF01003EFF3118883F31288BFF36F8F56
:1029F400114F124BB8681860FFF7F6FEB86810491B
:102A04002A463346183000F0F1F8BA68537B43F095
:102A1400100353734046FEF7BDF801F01CFC201A66
:102A240063EB0303012873F10003D0DBBDE8F081FD
:102A34006FF00104241AD3E790030020B4030020AC
:102A440035410008B1F1FF3F08BFB0F1FF3F08B5C1
:102A540006D1074B9868FFF719FF4FF0FF3008BD08
:102A6400FFF7ACFF0A220023C117FDF7F9FBF6E7D5
:102A740090030020014B9868704700BF900300202A
:102A84002DE9F04104464FF01003EFF3118683F370
:102A94001288BFF36F8F437B1A0705D586F311881D
:102AA400BFF36F8FBDE8F08123F0200242F00801EC
:102AB400D20920D14173A36813B1204601F002FB6F
:102AC40004F1180001F097FB04F158074FF00008D7
:102AD400A56DBD4200D0B5B90120FFF797FD104B9D
:102AE4009B68A342DAD1EFF30583002BD6D130469D
:102AF400FEF750F8D2E703F05F0343F00803437393
:102B040001F0D8FAD7E7284601F0DCFA05F11800FD
:102B140001F071FBC5F878802846FFF713FED7E76C
:102B24009003002008B50648064A0749121A01F026
:102B3400A7FABDE80840054A0549064801F0A0BACD
:102B44000000002094000020104C00080000000049
:102B5400104C000800000020034B1B680BB9FFF762
:102B64007BB90020704700BFC0030020104B10B594
:102B74001C689C4208BF0024FFF7EEFFA4B1D4E90F
:102B840004321B1A62EBE072B3F1004F72F10001E0
:102B94000ADA002AACBF18460020064B1B6913B1A1
:102BA4009842A8BF184610BD6FF00040F5E700BF7B
:102BB400540000209003002030B5036868B10A4A2D
:102BC4005268904209D043B1D3E90421D0E90445C5
:102BD400121941EB0501C3E90421426813605A60EC
:102BE4000023C0E9003330BD54000020B3F1FF3F9F
:102BF40008BFB2F1FF3FF8B504461D46164667D03C
:102C040081604FF01003EFF3118783F31288BFF351
:102C14006F8F013275F1FF331EDA2E49D1E900209E
:102C24006FF001039B1A4FF0FF3262EB00009E1B12
:102C340060EB0500012E70F1000301DA012600208B
:102C4400C4E90460244ED6E900C5B44516D1C4E9EC
:102C540000652C60746028E0FFF77EFF013645F1C3
:102C64000005361845EBE070EAE79B1A61EB0001BA
:102C74006545C4E90431EAD0DCF800C0BCF1000FBA
:102C8400E5D0DCE90420D4E90431934271EB000E71
:102C9400EBDAD21ADCF8043060EB0100CCE9042052
:102CA400C4E900C31C60CCF804403368B3420BD0C1
:102CB4009C4209D1FFF75AFF18B1084B1B698342A4
:102CC40002D00021FFF752F887F31188BFF36F8F0A
:102CD400F8BD00BF9801002054000020900300209C
:102CE4002DE9F8430546FFF7EBFC4FF01003EFF333
:102CF400118483F31288BFF36F8F244EDFF8908022
:102D04003560244DD8F8000032684045D5E9001EEE
:102D14004FEAE2770BD050B1D0E9043C9A4277EB0A
:102D24000C0916DA9B1A6CEB070CC0E9043C511829
:102D34004EEB0707C5E9001700253560FFF716FFBE
:102D44002946FFF713F884F31188BFF36F8FBDE8AA
:102D5400F88359184EEBE377D31A3360002200232B
:102D6400C0E90423C5E90017FFF726FF84F311889F
:102D7400BFF36F8F836898474FF01003EFF311840C
:102D840083F31288BFF36F8FBCE700BFC00300203A
:102D9400540000209801002010B54FF01003EFF309
:102DA400118483F31288BFF36F8FFFF755F8054A38
:102DB400D2E90031C01841F1000184F31188BFF356
:102DC4006F8F10BD9801002038B5044678B1FFF725
:102DD40061F805460648074AA4FB00010023FDF7F5
:102DE4003FFA0446FFF756F8431BA342FAD338BD13
:102DF40000D8B80540420F00024A0349034800F0D6
:102E04006EB900BF0D4C0008C64B0008E74B000824
:102E14002DE9F047089E0D4604460F46002B4AD183
:102E24008A42944665D9B2FA82F343B102FA03FCAA
:102E3400C3F120029F4020FA02F217439C404FEA5C
:102E44001C4E1FFA8CF5B7FBFEF1220C0EFB11771A
:102E540042EA074201FB05F090420AD91CEB020248
:102E640001F1FF3780F01B81904240F21881023952
:102E74006244121AA4B2B2FBFEF00EFB102244EA22
:102E8400024400FB05F5A5420AD91CEB040400F139
:102E9400FF3280F00681A54240F203816444023887
:102EA40040EA0140641B00211EB1DC400023C6E956
:102EB4000043BDE8F0878B4208D9002E00F0EC8077
:102EC4000021C6E900050846BDE8F087B3FA83F19E
:102ED400002949D1AB4202D3824200F2F780841A1E
:102EE40065EB030201201746002EE2D0C6E9004735
:102EF400DFE702B9FFDEB2FA82F3002B40F08F80E5
:102F04008A1A4FEA1C471FFA8CFE0121B2FBF7F51F
:102F140007FB1520220C42EA00420EFB05F090420A
:102F240008D91CEB020205F1FF3802D2904200F2EC
:102F3400CA804546121AA4B2B2FBF7F007FB10226E
:102F440044EA02440EFB00FEA64508D91CEB040427
:102F540000F1FF3202D2A64500F2BA801046A4EB7B
:102F64000E0440EA05409FE7C1F120078B4022FA96
:102F740007FC4CEA030C05FA01F420FA07F3FD40C0
:102F8400234300FA01F94FEA1C401FFA8CFEB5FBFB
:102F9400F0F81C0C00FB185544EA054408FB0EF538
:102FA400A54202FA01F20BD91CEB040408F1FF3A22
:102FB40080F08780A54240F28480A8F1020864442E
:102FC400641B9DB2B4FBF0F300FB134445EA0444D4
:102FD40003FB0EFEA64508D91CEB040403F1FF30E5
:102FE4006BD2A64569D9023B644443EA0840A0FB7E
:102FF4000283A4EB0E049C42C6461D4655D352D010
:1030040056B1B9EB0E0364EB050404FA07F7CB40A1
:10301400CC401F43C6E900740021BDE8F087C3F12A
:10302400200102FA03FC20FA01F225FA01F19D4085
:103034002A434FEA1C471FFA8CFEB1FBF7F007FB4B
:103044001015110C41EA054100FB0EF58D4204FAFE
:1030540003F408D91CEB010100F1FF382FD28D4293
:103064002DD902386144491B92B2B1FBF7F507FB35
:10307400151142EA014205FB0EF1914208D91CEBFD
:10308400020205F1FF3816D2914214D9023D62447E
:10309400521A45EA004139E73146304609E73946D4
:1030A400E7E61046FCE6C145AAD2B8EB020E63EB94
:1030B4000C050138A4E74546EAE7034695E7404690
:1030C400D1E7D0467CE7023D624433E708460BE78C
:1030D4006444023843E700BF7047002070470FB4D0
:1030E40007B504A951F8040B0191FDF729F903B0C0
:1030F4005DF804EB04B07047044608B50846114671
:103104001A46A047FFF7B6FCFDF71EFF2DE9F84F5E
:103114009A46D3786F2B80460F461546A3F1410B90
:1031240029D024D8582B14BF0A261026DDF828905D
:103134003246002340463946FDF792F8092AD4B2B4
:103144001ED83034B045E4B277F1000709F8014DD8
:1031540001D3D14511D82B789B0605D5082E15D15E
:10316400AB7843F00803AB704846BDE8F88F03F032
:10317400F703702BD7E70826D8E780460F46D7E732
:10318400BBF1190F94BF37345734DBE7102EEBD162
:10319400AB7843F01003E6E72DE9F0410746884693
:1031A40015461E461446B442A4EB050002D33EB9AC
:1031B40023782BB114F8010B4146B8470028F2DA02
:1031C400BDE8F08170470020704700F03CBF014625
:1031D400006800F038BF00210120FFF7F6BF08B5F2
:1031E400FDF7B0FCBDE80840FDF784BD03460020B0
:1031F4001A5C02B970470130FAE7034600201A5CF2
:103204000AB1884200D170470130F8E710B5431E77
:103214000A44914200D110BD11F8014B03F8014F4B
:10322400F7E7C9B202440346934200D1704703F85A
:10323400011BF9E74FF0FF307047002208B5114633
:103244000620FDF767FC002211460720FDF762FC0B
:10325400002211460820FDF75DFC002211460920DA
:10326400FDF758FC002211460A20FDF753FC00220A
:1032740011461720FDF74EFC002211462820FDF7C9
:1032840049FC002211460120FDF744FC00221146AE
:103294002A20FDF73FFC002211460220FDF73AFCEC
:1032A400002211460320FDF735FC002008BD026909
:1032B40017211620FDF726BF026916211520FDF7F8
:1032C40021BF026913211220FDF71CBF02691121DD
:1032D4001020FDF717BF026910210A20FDF712BF65
:1032E40002690A210520FDF70DBF026905210420AA
:1032F400FDF708BF026904210320FDF703BF02693B
:1033040003210220FDF7FEBE026902210120FDF720
:10331400F9BE026901210020FDF7F4BEC023082292
:10332400C0E900234FF480338360704770474368DB
:103334005B681B690B600020704743685B685869D1
:1033440042400A4042405A610020704743685B682B
:1033540000209961704743685B6809049961002003
:10336400704743685A6853694B4053610020704763
:103374000369986830B558B10024814212D10868B5
:10338400DD6854B98D42986000D1D860002008608F
:103394006AB9002030BD2846EFE78D42206008BF9F
:1033A400DC60F3E705680446002DF4D13AB1D8682F
:1033B4009A680A6099600028EBD1D960EAE76FF057
:1033C4001500E7E708B50369586040680C30FEF75C
:1033D40023F800EAE07008BDF0B54468012067688E
:1033E40088401E46C2F3801327EA00078B403B4304
:1033F400636090FAA0F7B7FA87F7D4F808C04FF0E3
:10340400030E7F000EFA07F72CEA070C90FAA0F7D8
:10341400B7FA87F7C2F3C1137F00BB4043EA0C033A
:10342400A36090FAA0F3B3FA83F3E7685B000EFAA3
:1034340003F327EA030790FAA0F3B3FA83F302F045
:1034440030055B00C2F341229A403A43202DE260EA
:1034540016D107292BDC90FAA0F3226A2BB3B3FA16
:1034640083F39B000F2101FA03F322EA030290FA8B
:10347400A0F3B3FA83F39B0006FA03F31343236226
:1034840090FAA0F3B3FA83F3226890FAA0F05B00F9
:103494000321B0FA80F02D0901FA03F3400022EA77
:1034A400030385401D432560F0BD2B46D9E7030A7D
:1034B400616A93FAA3F282B1B2FA82F292000F2700
:1034C40093FAA3F3B3FA83F307FA02F29B0021EA17
:1034D40002029E4016436662D2E72A46EEE738B5FA
:1034E4000D4691030446134619D59A0710D558077B
:1034F4002ED55022D9060DD542F4007219031CD4DE
:10350400580313D50121A9402046FFF724FF0DE0FD
:103514001022EFE79806F1D542F48062EEE7D1037A
:1035240011D5DA0611D4C3F340139A02606800235C
:103534002946FFF751FF002038BD6168012349681F
:10354400AB408B61F2E73022F0E74FF40072EDE715
:103554006FF08500F0E70B46896870B569B1012505
:103564005E680C6885408A682A4002D04B68304601
:10357400984714B121462468F5E770BD08B5406842
:10358400FFF72AFF002008BD034600695B68426C10
:10359400DB6810B48AB1013A42641AB95A6822F459
:1035A40080625A60816C1A6911F8014B22F0FF02A3
:1035B40022431A6110BC81647047C26A910742BFFA
:1035C4001A6842F400721A605A69520748BF1B69AC
:1035D40010BCFEF753BFC3685A6842F480725A6045
:1035E4005A6842F400725A605A6842F480625A601F
:1035F4007047C3685A6822F4C0625A605A6822F459
:10360400C0625A605A6822F400725A605A6822F4FE
:1036140080625A605A6822F480725A607047406827
:10362400C168F8B50B6823F001030B60FFF7E1FFF5
:103634000F684E688B68CD68CC69086A4A6AD1F80D
:1036440000C04CF4004CC1F800C0D1F800C09BB2DB
:103654002CF4004CBFB2B6B243F48043ADB2A4B272
:1036640080B292B2C1F800C00F604E608B60CD6032
:10367400CC6108624A62F8BD2DE9F0411F464368F7
:103684000469DD680E4690462046FEF73FFF7368E6
:1036940063643368A36487F001070023327AA3626A
:1036A400C4E90C73C4E90E332B68E26243F00103EE
:1036B4002664A4F824802B602B6823F400632B6019
:1036C4002B68510743F480632B600BD52B689A0554
:1036D40041BF23F400731B041B0C2B602B6843F4C1
:1036E40080732B60BDE8F081036970B5D3E90E5493
:1036F40055EA04060246586B03D1A8B10021596368
:1037040001E00028FAD10DB1002199630CB1002128
:10371400D9635068C168FFF76CFF0B6823F001039D
:103724000B606FF0040009E041B95068C468FFF70A
:1037340060FF236823F001032360084670BD03463D
:1037440000695B68426CDB68002A37D0022A20D00B
:10375400032A26D0012A816C28D11A6822F48062B7
:103764001A601A6822F400621A60C26A920742BFA1
:103774001A6842F400721A605A6822F480625A602D
:103784001B69002242640B70836C01338364FEF76F
:1037940075BE1A6822F480621A601A6842F40062E4
:1037A4001A605A6822F480625A6070471B69013AB1
:1037B40042640B70836C013383647047C26A92075E
:1037C40042BF1A6842F400721A60E0E74368026973
:1037D400DB6810B45C69E40785B0014630D5106A33
:1037E400918C10F0010013D0946AC91101F0060104
:1037F40054B941F0F00190621A6922F0FF020A43C1
:103804001A6105B010BC704741F0F1010020F2E7E5
:10381400106B490020B11A69C9B222F0FF02EEE729
:103824001869526C41F0010120F0FF00C9B2014354
:10383400022A1961E5D11A6842F400621A60E0E7CD
:103844005C69240705D5196992F8242021F0FF0149
:10385400D5E75C69A40739D5106A116BC00715D583
:10386400A9B9906AD0B191625A690192019A9A6990
:103874000192019A1A68910541BF22F40072120460
:10388400120C1A601A6842F48072D7E731B15A698F
:103894000292029A9B690293029BB2E7526C012A3C
:1038A4000AD11A6822F480621A605A690392039A50
:1038B4009B690393039BA4E7022AF6D11A6822F4B6
:1038C40080621A601A6842F40062EDE75C6964077A
:1038D40038D5146B24B1084605B010BCFFF754BEAC
:1038E400516C022905D003291FD005B010BCFFF785
:1038F40026BFD16A8C0742BF196841F40071196070
:1039040001215164916C18690870906C1B69411C09
:103914009164516C013951644370936C0133936425
:10392400104605B010BCFEF7A9BD196821F48061EA
:10393400196002215164916C1B690B70936C013303
:1039440093645EE75869000602D5106B0028C2D163
:103954005B695B067FF555AF136B002B7FF451AFAA
:103964000846C2E7034600695B68DB685A6912F4DB
:10397400806F5A690AD022F480625A611A6842F44C
:1039840000721A6001238363FEF778BD12F4007F8E
:103994005A6905D022F400725A6101234363F3E7A4
:1039A400D20506D55A6922F480725A610123C36391
:1039B400EAE7704770B5044615461A4600230669BF
:1039C400FFF75AFE6068FFF706FE41F288320023D3
:1039D4003046FEF773FD28B929462046BDE87040FD
:1039E400FFF782BE2046FFF71AFE6FF0040070BD99
:1039F400F8B515461A4643680769DE68044601238C
:103A0400FFF73AFE6068FFF7E6FD736843F4C063AE
:103A1400736041F2883200233846FEF74FFD28B91F
:103A240029462046BDE8F840FFF75EBE2046FFF772
:103A3400F6FD6FF00400F8BD08B5002211461F2002
:103A4400FDF768F81F20FDF757F8002220201146E3
:103A5400FDF760F8BDE808402020FDF74DB808B533
:103A6400002211464820FDF755F84820FDF744F898
:103A7400002249201146FDF74DF8BDE808404920D1
:103A8400FDF73AB82DE9F04F99460B7A066943F0F1
:103A9400040315460B7287B007460C460A460123F9
:103AA400AB420CD906F110084FF0FF334FF0FF3250
:103AB4004046FEF703FD1434002303AE50E0117AB0
:103AC4000CD2107D80EA010C1CF0010F01D04007DC
:103AD40001D5890705D56FF0150348E041F00201CF
:103AE400117201330C32DBB2DAE7012D14BF234625
:103AF40000230193A4F1140393E8070086E8070068
:103B04009DF814B0DDF810A02BF006038DF80B30EF
:103B1400049BFF2B83BFFF2304939DF81430019A69
:103B24008ABF03F0FD035B460DF10B0213F0010F96
:103B34008DF8143031464B4638461CD1FFF73AFF16
:103B4400002803460EDB0499039AAAEB010A0A44EF
:103B5400CDE9032ABAF1000FDAD1013DEDB20C34FC
:103B6400002DC2D101934046FEF788FC019B184604
:103B740007B0BDE8F08FFFF73BFFE1E710B48468BE
:103B8400A468A44610BC604743685B689B681847F8
:103B940073B523221B2104690546FFF7F5FF0023B3
:103BA4008DF800306B685B686A465B6803212846C1
:103BB4009847002827DB9DF800309B06F2D56B68F8
:103BC4005B686A461E68042106232846B04700281D
:103BD40019DB9DF802309DF801201B0443EA0223FF
:103BE4009DF800201343A3619DF805309DF804203F
:103BF4001B0443EA02239DF803201343E3610022DC
:103C04000023C4E9082302B070BDB0F80320C369DF
:103C1400F0B51202B0F805509B1AA5FB032466EB1D
:103C2400060605FB0644A40490F9075044EA9234BE
:103C340091045E43A3FB033202EB4602EF176A438F
:103C440003FB0722A5FB035313444A1943EB040364
:103C5400002B02DA013A43F10003DA17C0E9083213
:103C6400F0BD30B5446889B020688DF807100DF1B7
:103C740007011D460291012123890391CDE9052500
:103C8400002107228DF810108DF81C20022202A9B1
:103C9400FFF774FF09B030BD1FB5436818688DF88D
:103CA400012002221B898DF80010CDF804D0029265
:103CB4008DF80C20012201A9FFF760FF05B05DF823
:103CC40004FB10B5436888B018688DF807100DF12F
:103CD4000701029101211B890391CDE905210024EB
:103CE40007228DF810408DF81C20022202A9FFF74C
:103CF40045FF08B010BD2DE9F0479846436888B0E9
:103D0400D3F8009093F808A08DF80410002301273D
:103D14008DF810300DF10303CDE9053701AD07230C
:103D24000E461446029503978DF81C300222534622
:103D340002A94846FFF722FFB8B99DF8032022EAFA
:103D4400040304EA08041C43A2420ED002238DF8A3
:103D540004608DF80540029503938DF810305346A6
:103D64003A4602A94846FFF709FF08B0BDE8F087C4
:103D740010B444686468E468A44610BC60472DE944
:103D8400F3414768066900258DF8075004463868F2
:103D940000F043F9002851D0B6227E212046FFF7D7
:103DA400F3FEA84245DB4FF4FA60FFF70DF86368B1
:103DB4005B680DF107025B68294620469847A842D4
:103DC40037DB9DF80730502B3BD1636822695B6871
:103DD4000332D3F80080312115232046C047A8427E
:103DE40027DB33781F221D212046FFF7C1FFA8429D
:103DF4001FDBB378727842EAC302D2B21C21204698
:103E04008DF80720FFF7C0FEA84212DBBA7A5200F1
:103E140002F00E021F2120468DF80720FFF7B4FEA2
:103E2400A84206DB33221B212046FFF7ADFEA84241
:103E34000ADA6FF0040002B0BDE8F0816FF01500FB
:103E4400F9E76FF01200F6E72846F4E782B003685A
:103E54000193019B43680193019B02B0704708B52D
:103E64004368186803681A0701D5FFF7EFFF036872
:103E74009B0643BF43680B7000204FF0FF3008BD22
:103E840010B54068026813681B06FCD54FF0100299
:103E9400EFF3118382F31288BFF36F8F0268146803
:103EA400240604D483F31188BFF36F8FEAE75160CB
:103EB40083F31188BFF36F8F10BD08B5436818688A
:103EC40002680368D9070368C2F3C00248BF42F01E
:103ED40002029B07036848BF42F00402D90542BFAF
:103EE4006FF4807342F008020360D30701D5FFF733
:103EF400ADFF910701D5FFF7A9FF530701D5FFF7E0
:103F0400A5FFFFF7A3FF104608BDF7B50369466890
:103F14005C680D46371D204600F07FF810B3A36897
:103F2400DB68FBB101AA394620469847002819DB13
:103F340034680198E368192123F40043E360AA007C
:103F4400AB0FA0FB0101FCF78BF96422B0FBF2F18B
:103F540002FB11031B013233B3FBF2F303EB011336
:103F64009BB2A36003B0F0BD03691B680B60436898
:103F74001A68D36803F4C063B3F5806F29D0A3F53E
:103F8400C06CDCF1000343EB0C030B71136903F405
:103F94004053B3F5805F1ED0B3F5405F1DD0002BB6
:103FA40014BF032301234B71D068D368C00403F406
:103FB400C06314D5002B14BF032304238B715369EE
:103FC40003F44073A3F5407253425341CB71002074
:103FD40070470223D9E70023E5E70223E3E7002B38
:103FE4000CBF03230223E9E730B5036813600379A8
:103FF40003F10053013BDB00056814681D44AC4227
:1040040002D96FF0010030BD65798D4202D00834C9
:104014001460F1E70020F6E7704738B1C3681888E8
:10402400C0F30800A0F580735842584170474FF020
:104034001002EFF3118382F31288BFF36F8FFEE750
:1040440008B5FFF7F4FFF8B505460E464FF0100328
:10405400EFF3118783F31288BFF36F8FFEF70AFD26
:10406400314604462846FFF7EBFF87F31188BFF378
:104074006F8F2046BDE8F840FCF766BFFFF7D1B864
:10408400FFF7C4B808B54FF01002EFF3118382F3C1
:104094001288BFF36F8FFCF721FDF4E73AB18A422F
:1040A40005D3C0E90212C0E90000002070476FF098
:1040B40015007047D0E9003213605A600023C0E94C
:1040C4000033704708B5FFF7F5FF437B23F0020385
:1040D40043730023836008BD034620B9EFF30582D0
:1040E4000AB9FCF757BD83F31188BFF36F8F70478C
:1040F4004FF01003EFF3118083F31288BFF36F8F37
:10410400FFF7EABF03460068834208BF00207047F8
:1041140010B54FF01003EFF3118483F31288BFF34B
:104124006F8FFEF70FFB84F31188BFF36F8F10BD01
:1041340010B501464FF01003EFF3118483F3128896
:10414400BFF36F8F10F80B3C13F0280F0DD151F80B
:10415400103C18380BB1FFF7B5FF11F80B3C23F0F6
:10416400140301F80B3CFEF7EDFA84F31188BFF356
:104174006F8F10BD38B504460D46FEF735FB637BE3
:1041840043F0020363738DB12B68A5609D4214D084
:104194009BB194F90E2093F90E108A4207D09142F4
:1041A40005DD5A68C4E9003214605C6038BD696892
:1041B4008B4202D01B68002BEDD16B68C4E900531D
:1041C4001C606C60F2E738B54FF01003EFF3118513
:1041D40083F31288BFF36F8FFFF794FF044620B177
:1041E400FFF770FF183000F006F885F31188BFF36D
:1041F4006F8F204638BD10B54FF01002EFF31184D5
:1042040082F31288BFF36F8F03683BB1FEF7D4FCCF
:10421400002084F31188BFF36F8F10BD6FF0150079
:10422400F7E770B504460D464FF01003EFF311861F
:1042340083F31288BFF36F8FFEF798FC012805DD26
:10424400A04203DB29462046FDF790FD86F3118842
:0E425400BFF36F8F70BD08B5FEF79EFD08BD6D
:02426200FFFF5C
:08426400B0EBFF7F0100000038
:10426C00950A000800000000CB3100080000000097
:10427C0029130008FC4200083F32000814430008D0
:10428C00C93300082C430008C93300084443000814
:10429C00C93300085C430008C933000874430008A4
:1042AC00C93300088C430008C9330008A443000834
:1042BC00C9330008BC430008C9330008D4430008C4
:1042CC009D1A0008EC430008C5130008000000000C
:1042DC00F91C0008000000006D16000804440008DA
:1042EC006D1600081C440008833D00083444000887
:1042FC00564B000800000000300000206000002039
:10430C0000000000BC470008214B00080000000022
:10431C00000000005C000020AC010020B647000843
:10432C00634B000898480008AC4800086400002063
:10433C00D8020020AE470008694B000884480008EA
:10434C00AC48000868000020C8020020A6470008FE
:10435C006F4B000870480008AC4800086C00002047
:10436C00B80200209E470008754B00085C48000806
:10437C00AC48000870000020A802002096470008F6
:10438C007B4B000848480008AC480008740000202B
:10439C00980200208E470008814B00083448000822
:1043AC00AC480008780000208802002086470008EE
:1043BC00874B000820480008AC4800087C0000200F
:1043CC00780200207E4700088D4B00080C4800083E
:1043DC00AC480008800000206802002076470008E6
:1043EC00AA4B0008A8490008C44900089000002006
:1043FC00480000206E470008934B00084049000815
:10440C00104900088400002034030020664700088F
:10441C00994B000828490008104900088800002022
:10442C00E80200205C4700089F4B00086C4900081C
:10443C00584900088C000020000000205447000858
:10444C0000000000DB31000814430008D1320008E2
:10445C0014430008BD32000814430008B3320008AE
:10446C0000000000DB31000800000000DB31000818
:10447C001443000817330008144300080D330008D8
:10448C00144300080333000814430008F9320008F1
:10449C0014430008EF32000800000000DB31000874
:1044AC0000000000DB31000800000000DB310008D8
:1044BC0000000000DB31000800000000DB310008C8
:1044CC0000000000DB31000800000000DB310008B8
:1044DC0000000000DB31000800000000DB310008A8
:1044EC0000000000DB31000800000000DB31000898
:1044FC0000000000DB31000814430008E53200081E
:10450C0000000000DB31000800000000DB31000877
:10451C0000000000DB31000800000000DB31000867
:10452C0000000000DB31000800000000DB31000857
:10453C0000000000DB3100081C440008D1370008E3
:10454C001C4400086939000800000000DB31000839
:10455C0000000000DB31000800000000DB31000827
:10456C0000000000DB31000800000000DB31000817
:10457C0000000000DB31000800000000DB31000807
:10458C0014430008DB32000800000000DB31000897
:10459C0014430008C732000800000000DB3100089B
:1045AC0000000000DB31000800000000DB310008D7
:1045BC0000000000DB31000800000000DB310008C7
:1045CC0000000000DB31000800000000DB310008B7
:1045DC0000000000DB31000800000000DB310008A7
:1045EC0000000000DB31000800000000DB31000897
:1045FC0000000000DB31000800000000DB31000887
:10460C0000000000DB31000800000000DB31000876
:10461C0000000000DB31000800000000DB31000866
:10462C0000000000DB31000800000000DB31000856
:10463C0000000000DB31000800000000DB31000846
:10464C0000000000DB31000800000000DB31000836
:10465C0000000000DB31000800000000DB31000826
:10466C0000000000DB31000800000000DB31000816
:10467C0000000000DB31000800000000DB31000806
:10468C0004440008D13700080444000869390008C4
:10469C0000000000DB31000800000000DB310008E6
:1046AC0000000000DB31000800000000DB310008D6
:1046BC0000000000DB31000800000000DB310008C6
:1046CC0000000000DB31000800000000DB310008B6
:1046DC0000000000DB31000800000000DB310008A6
:1046EC0000000000DB31000800000000DB31000896
:1046FC0000000000DB31000800000000DB31000886
:10470C0000000000DB31000800000000DB31000875
:10471C0000000000DB31000800000000DB31000865
:10472C0000000000DB31000800000000DB31000855
:10473C0000000000DB31000800000000DB31000845
:08474C0000000000DB31000851
:104754000D0000800080FF7F0100008000800E00BB
:10476400FF7F010000800080FF7F01000080008047
:10477400FF7F010000800080FF7F01000080008037
:10478400FF7F010000800080FF7F01000080008027
:10479400FF7F010000800080FF7F01000080008017
:1047A400FF7F010000800080FF7F01000080008007
:1047B400FF7F00800080FF7F0080008009000D00E3
:1047C400060003000A0007000C000B0004000800A8
:0447D4000500FF7F5E
:1047D800030000000040000000000020000000006E
:1047E80000000B0602000000F44700080000000863
:1047F800124B000822000207000000201A4B000894
:1048080020000B11FFFF0000000002400000000024
:104818000000000001000000FFFF0000000402404B
:10482800010000000000000002000000FFFF00007F
:104838000008024002000000000000000400000020
:10484800FFFF0000000C0240030000000000000011
:1048580008000000FFFF00000010024004000000F4
:104868000000000010000000FFFF000000140240DC
:10487800050000000000000020000000FFFF00000D
:104888000018024006000000000000004000000080
:10489800FFFF0000001C02400700000000000000AD
:1048A80080000000E3340008333300083F33000879
:1048B800513300085B3300086733000845140008CB
:1048C80075330008000000000049000801000000DE
:1048D800084900080100000004010000400200002F
:1048E800240500004002000004030000400200000C
:1048F800E402000040020000E04800080200000056
:10490800F048000802000000ED1500080000000053
:10491800893A0008000000000000000000000000C4
:104928003D3A00080200000000002000005400404A
:10493800801A0600D8480008633A00080200000000
:1049480000008000005C0040801A0600D048000883
:10495800ED1900080000000000000000953B000869
:10496800351700081C440008784900087700000043
:10497800673C0008C73C00089D3C0008FB3C000859
:10498800A049000801000000C70200000002000062
:1049980047010000000000009049000802000000E4
:1049A800001001400300000010000000000000009B
:1049B800000000000000000088490008633E00086D
:1049C800853E0008BF3E0008791B00086D3F0008BF
:1049D800D4430008BC430008A44300088C430008E3
:1049E800744300085C430008444300082C43000853
:1049F8000000000000000000000000006C420008F9
:104A0800DC420008E4420008FC420008FC420008BE
:104A1800F5FFFFFF000003000000060000000C0087
:104A28000000180000003100000062000000C30010
:104A38000000870100000D030100330203007D0020
:104A48000600FA000C00F401190000003200000012
:104A580064000000C8000000001000000030424D53
:104A6800503338382073656E736F72206170706CC4
:104A780069636174696F6E2E0A00446576696365BF
:104A8800206973206E6F742072656164792E0A0044
:104A980053656E736F722073616D706C6520666507
:104AA800746368206661696C2E0A0053656E736FC3
:104AB80072206368616E6E656C206765742066613C
:104AC800696C2E0A0050726573737572653A2020FE
:104AD80020202564206B696C6F70617363616C2E94
:104AE8000A0054656D70657261747572653A2025A7
:104AF8006420646567726565732043656C736975C6
:104B0800732E0A00286E696C2900464C4153485F91
:104B180030005352414D5F3000696E746572727592
:104B280070742D636F6E74726F6C6C657240343084
:104B380030313363303000060708090A1717171792
:104B48001728282828282801FF2AFFFF0203726354
:104B580063403430303233383030004750494F48A2
:104B6800004750494F47004750494F460047504972
:104B78004F45004750494F44004750494F4300476D
:104B880050494F42004750494F41004932435F3333
:104B9800004932435F3100424D503338385F493263
:104BA8004300554152545F310000000000000000EE
:104BB8000001020304060708096D61696E007A6541
:104BC800706879722D76332E302E302D313336358C
:104BD8002D67626337326662363762316338002A7E
:104BE8002A2A20426F6F74696E67205A6570687947
:104BF80072204F53206275696C64202573202573D9
:084C0800202A2A2A0A000000FC
:104C10000002000000000000000000000000000092
:104C20000000000000000000000000000000000084
:104C30000000000000000000DF30000839320008EA
:104C4000151200089D120008000000000113000862
:104C5000000000000000000000C201000000000091
:0C4C60000024F400540000205400002048
:104C6C000000000000000000000000000000000038
:104C7C000000000000000000000000000000000028
:104C8C000000000000000000000000000000000018
:084C9C00000000000000000010
:0400000508000F21BF
:00000001FF
